{
  "_format": "hh-sol-artifact-1",
  "contractName": "DonationRelay",
  "sourceName": "contracts/Donation/DonationRelay.sol",
  "abi": [
    {
      "anonymous": false,
      "inputs": [
        {
          "indexed": true,
          "internalType": "address",
          "name": "user",
          "type": "address"
        },
        {
          "indexed": false,
          "internalType": "string",
          "name": "newAlias",
          "type": "string"
        }
      ],
      "name": "AliasChanged",
      "type": "event"
    },
    {
      "anonymous": false,
      "inputs": [
        {
          "indexed": true,
          "internalType": "address",
          "name": "sender",
          "type": "address"
        },
        {
          "indexed": true,
          "internalType": "address",
          "name": "receiver",
          "type": "address"
        },
        {
          "components": [
            {
              "internalType": "string",
              "name": "message",
              "type": "string"
            },
            {
              "internalType": "uint256",
              "name": "amount",
              "type": "uint256"
            },
            {
              "internalType": "enum DonationRelay.DonationType",
              "name": "donationType",
              "type": "uint8"
            },
            {
              "internalType": "address",
              "name": "tokenAddress",
              "type": "address"
            },
            {
              "internalType": "uint256",
              "name": "timestamp",
              "type": "uint256"
            }
          ],
          "indexed": false,
          "internalType": "struct DonationRelay.DonationMessage",
          "name": "donationMessage",
          "type": "tuple"
        }
      ],
      "name": "DonationReceived",
      "type": "event"
    },
    {
      "anonymous": false,
      "inputs": [
        {
          "indexed": true,
          "internalType": "address",
          "name": "user",
          "type": "address"
        },
        {
          "indexed": false,
          "internalType": "string",
          "name": "userAlias",
          "type": "string"
        }
      ],
      "name": "NewUser",
      "type": "event"
    },
    {
      "inputs": [
        {
          "internalType": "string",
          "name": "",
          "type": "string"
        }
      ],
      "name": "aliasOwnerMapping",
      "outputs": [
        {
          "internalType": "address payable",
          "name": "",
          "type": "address"
        }
      ],
      "stateMutability": "view",
      "type": "function"
    },
    {
      "inputs": [
        {
          "internalType": "address payable",
          "name": "_address",
          "type": "address"
        },
        {
          "internalType": "address",
          "name": "_tokenAddress",
          "type": "address"
        },
        {
          "internalType": "uint256",
          "name": "_amount",
          "type": "uint256"
        },
        {
          "internalType": "string",
          "name": "message",
          "type": "string"
        }
      ],
      "name": "donateERC20ToAddress",
      "outputs": [],
      "stateMutability": "nonpayable",
      "type": "function"
    },
    {
      "inputs": [
        {
          "internalType": "string",
          "name": "_alias",
          "type": "string"
        },
        {
          "internalType": "address",
          "name": "_tokenAddress",
          "type": "address"
        },
        {
          "internalType": "uint256",
          "name": "_amount",
          "type": "uint256"
        },
        {
          "internalType": "string",
          "name": "message",
          "type": "string"
        }
      ],
      "name": "donateERC20ToAlias",
      "outputs": [],
      "stateMutability": "nonpayable",
      "type": "function"
    },
    {
      "inputs": [
        {
          "internalType": "address payable",
          "name": "_address",
          "type": "address"
        },
        {
          "internalType": "string",
          "name": "message",
          "type": "string"
        }
      ],
      "name": "donateEtherToAddress",
      "outputs": [],
      "stateMutability": "payable",
      "type": "function"
    },
    {
      "inputs": [
        {
          "internalType": "string",
          "name": "_alias",
          "type": "string"
        },
        {
          "internalType": "string",
          "name": "message",
          "type": "string"
        }
      ],
      "name": "donateEtherToAlias",
      "outputs": [],
      "stateMutability": "payable",
      "type": "function"
    },
    {
      "inputs": [
        {
          "internalType": "string",
          "name": "_alias",
          "type": "string"
        }
      ],
      "name": "ownerOfAlias",
      "outputs": [
        {
          "internalType": "address payable",
          "name": "",
          "type": "address"
        }
      ],
      "stateMutability": "view",
      "type": "function"
    },
    {
      "inputs": [
        {
          "internalType": "string",
          "name": "_alias",
          "type": "string"
        }
      ],
      "name": "setAlias",
      "outputs": [],
      "stateMutability": "nonpayable",
      "type": "function"
    },
    {
      "inputs": [
        {
          "internalType": "address",
          "name": "",
          "type": "address"
        }
      ],
      "name": "userCurrentAliasMapping",
      "outputs": [
        {
          "internalType": "string",
          "name": "",
          "type": "string"
        }
      ],
      "stateMutability": "view",
      "type": "function"
    }
  ],
  "bytecode": "0x608060405234801561001057600080fd5b506122c8806100206000396000f3fe60806040526004361061007b5760003560e01c80638e72bade1161004e5780638e72bade1461012b57806398c01d5f14610147578063c89fe05b14610184578063cb507a7d146101c15761007b565b80630a239114146100805780634d64f71e146100bd5780636a293d04146100e65780638b9b104e1461010f575b600080fd5b34801561008c57600080fd5b506100a760048036038101906100a2919061113c565b6101ea565b6040516100b491906111f9565b60405180910390f35b3480156100c957600080fd5b506100e460048036038101906100df91906113e6565b61028a565b005b3480156100f257600080fd5b5061010d6004803603810190610108919061148a565b61033a565b005b610129600480360381019061012491906114d3565b610650565b005b6101456004803603810190610140919061158d565b6106fc565b005b34801561015357600080fd5b5061016e6004803603810190610169919061148a565b610833565b60405161017b91906115fc565b60405180910390f35b34801561019057600080fd5b506101ab60048036038101906101a6919061148a565b6108ef565b6040516101b891906115fc565b60405180910390f35b3480156101cd57600080fd5b506101e860048036038101906101e39190611617565b610938565b005b60016020528060005260406000206000915090508054610209906116ce565b80601f0160208091040260200160405190810160405280929190818152602001828054610235906116ce565b80156102825780601f1061025757610100808354040283529160200191610282565b820191906000526020600020905b81548152906001019060200180831161026557829003601f168201915b505050505081565b6000600160003373ffffffffffffffffffffffffffffffffffffffff1673ffffffffffffffffffffffffffffffffffffffff16815260200190815260200160002080546102d6906116ce565b905011610318576040517f08c379a000000000000000000000000000000000000000000000000000000000815260040161030f90611771565b60405180910390fd5b600061032386610833565b90506103328186868686610938565b505050505050565b600081511161037e576040517f08c379a0000000000000000000000000000000000000000000000000000000008152600401610375906117dd565b60405180910390fd5b600073ffffffffffffffffffffffffffffffffffffffff166000826040516103a69190611839565b908152602001604051809103902060009054906101000a900473ffffffffffffffffffffffffffffffffffffffff1673ffffffffffffffffffffffffffffffffffffffff161461042b576040517f08c379a00000000000000000000000000000000000000000000000000000000081526004016104229061189c565b60405180910390fd5b6000600160003373ffffffffffffffffffffffffffffffffffffffff1673ffffffffffffffffffffffffffffffffffffffff1681526020019081526020016000208054610477906116ce565b80601f01602080910402602001604051908101604052809291908181526020018280546104a3906116ce565b80156104f05780601f106104c5576101008083540402835291602001916104f0565b820191906000526020600020905b8154815290600101906020018083116104d357829003601f168201915b50505050509050600080826040516105089190611839565b908152602001604051809103902060006101000a81548173ffffffffffffffffffffffffffffffffffffffff021916908373ffffffffffffffffffffffffffffffffffffffff160217905550336000836040516105659190611839565b908152602001604051809103902060006101000a81548173ffffffffffffffffffffffffffffffffffffffff021916908373ffffffffffffffffffffffffffffffffffffffff16021790555081600160003373ffffffffffffffffffffffffffffffffffffffff1673ffffffffffffffffffffffffffffffffffffffff16815260200190815260200160002090816105fd9190611a68565b503373ffffffffffffffffffffffffffffffffffffffff167f3ef33afd41d1e4fdce38115f458f6ea7012c18c952f451f3a198ace181902ff58360405161064491906111f9565b60405180910390a25050565b6000600160003373ffffffffffffffffffffffffffffffffffffffff1673ffffffffffffffffffffffffffffffffffffffff168152602001908152602001600020805461069c906116ce565b9050116106de576040517f08c379a00000000000000000000000000000000000000000000000000000000081526004016106d590611771565b60405180910390fd5b60006106e984610833565b90506106f68184846106fc565b50505050565b6000600160003373ffffffffffffffffffffffffffffffffffffffff1673ffffffffffffffffffffffffffffffffffffffff1681526020019081526020016000208054610748906116ce565b90501161078a576040517f08c379a000000000000000000000000000000000000000000000000000000000815260040161078190611771565b60405180910390fd5b60006040518060a0016040528084848080601f016020809104026020016040519081016040528093929190818152602001838380828437600081840152601f19601f820116905080830192505050505050508152602001348152602001600060018111156107fb576107fa611b3a565b5b8152602001600073ffffffffffffffffffffffffffffffffffffffff16815260200142815250905061082d8482610a6f565b50505050565b6000806000836040516108469190611839565b908152602001604051809103902060009054906101000a900473ffffffffffffffffffffffffffffffffffffffff169050600073ffffffffffffffffffffffffffffffffffffffff168173ffffffffffffffffffffffffffffffffffffffff16036108e6576040517f08c379a00000000000000000000000000000000000000000000000000000000081526004016108dd90611bb5565b60405180910390fd5b80915050919050565b6000818051602081018201805184825260208301602085012081835280955050505050506000915054906101000a900473ffffffffffffffffffffffffffffffffffffffff1681565b6000600160003373ffffffffffffffffffffffffffffffffffffffff1673ffffffffffffffffffffffffffffffffffffffff1681526020019081526020016000208054610984906116ce565b9050116109c6576040517f08c379a00000000000000000000000000000000000000000000000000000000081526004016109bd90611771565b60405180910390fd5b60006040518060a0016040528084848080601f016020809104026020016040519081016040528093929190818152602001838380828437600081840152601f19601f820116905080830192505050505050508152602001858152602001600180811115610a3657610a35611b3a565b5b81526020018673ffffffffffffffffffffffffffffffffffffffff168152602001428152509050610a678682610cc5565b505050505050565b6000600160003373ffffffffffffffffffffffffffffffffffffffff1673ffffffffffffffffffffffffffffffffffffffff1681526020019081526020016000208054610abb906116ce565b905011610afd576040517f08c379a0000000000000000000000000000000000000000000000000000000008152600401610af490611771565b60405180910390fd5b600073ffffffffffffffffffffffffffffffffffffffff168273ffffffffffffffffffffffffffffffffffffffff1603610b6c576040517f08c379a0000000000000000000000000000000000000000000000000000000008152600401610b6390611c21565b60405180910390fd5b60003411610baf576040517f08c379a0000000000000000000000000000000000000000000000000000000008152600401610ba690611cb3565b60405180910390fd5b60008273ffffffffffffffffffffffffffffffffffffffff1634604051610bd590611d04565b60006040518083038185875af1925050503d8060008114610c12576040519150601f19603f3d011682016040523d82523d6000602084013e610c17565b606091505b5050905080610c5b576040517f08c379a0000000000000000000000000000000000000000000000000000000008152600401610c5290611d65565b60405180910390fd5b8273ffffffffffffffffffffffffffffffffffffffff163373ffffffffffffffffffffffffffffffffffffffff167f7ddea6bcb29e93e593cdfd2c4fe8fc91cceb3a45bd5b881bf97d210899eb761684604051610cb89190611eab565b60405180910390a3505050565b6000600160003373ffffffffffffffffffffffffffffffffffffffff1673ffffffffffffffffffffffffffffffffffffffff1681526020019081526020016000208054610d11906116ce565b905011610d53576040517f08c379a0000000000000000000000000000000000000000000000000000000008152600401610d4a90611771565b60405180910390fd5b600073ffffffffffffffffffffffffffffffffffffffff168273ffffffffffffffffffffffffffffffffffffffff1603610dc2576040517f08c379a0000000000000000000000000000000000000000000000000000000008152600401610db990611c21565b60405180910390fd5b6000816020015111610e09576040517f08c379a0000000000000000000000000000000000000000000000000000000008152600401610e0090611f3f565b60405180910390fd5b60008160600151905081602001518173ffffffffffffffffffffffffffffffffffffffff1663dd62ed3e33306040518363ffffffff1660e01b8152600401610e52929190611f6e565b602060405180830381865afa158015610e6f573d6000803e3d6000fd5b505050506040513d601f19601f82011682018060405250810190610e939190611fac565b11610ed3576040517f08c379a0000000000000000000000000000000000000000000000000000000008152600401610eca90612025565b60405180910390fd5b60008173ffffffffffffffffffffffffffffffffffffffff166323b872dd333086602001516040518463ffffffff1660e01b8152600401610f1693929190612054565b6020604051808303816000875af1158015610f35573d6000803e3d6000fd5b505050506040513d601f19601f82011682018060405250810190610f5991906120c3565b905080610f9b576040517f08c379a0000000000000000000000000000000000000000000000000000000008152600401610f9290612162565b60405180910390fd5b8173ffffffffffffffffffffffffffffffffffffffff1663a9059cbb8585602001516040518363ffffffff1660e01b8152600401610fda9291906121d7565b6020604051808303816000875af1158015610ff9573d6000803e3d6000fd5b505050506040513d601f19601f8201168201806040525081019061101d91906120c3565b90508061105f576040517f08c379a000000000000000000000000000000000000000000000000000000000815260040161105690612272565b60405180910390fd5b8373ffffffffffffffffffffffffffffffffffffffff163373ffffffffffffffffffffffffffffffffffffffff167f7ddea6bcb29e93e593cdfd2c4fe8fc91cceb3a45bd5b881bf97d210899eb7616856040516110bc9190611eab565b60405180910390a350505050565b6000604051905090565b600080fd5b600080fd5b600073ffffffffffffffffffffffffffffffffffffffff82169050919050565b6000611109826110de565b9050919050565b611119816110fe565b811461112457600080fd5b50565b60008135905061113681611110565b92915050565b600060208284031215611152576111516110d4565b5b600061116084828501611127565b91505092915050565b600081519050919050565b600082825260208201905092915050565b60005b838110156111a3578082015181840152602081019050611188565b60008484015250505050565b6000601f19601f8301169050919050565b60006111cb82611169565b6111d58185611174565b93506111e5818560208601611185565b6111ee816111af565b840191505092915050565b6000602082019050818103600083015261121381846111c0565b905092915050565b600080fd5b600080fd5b7f4e487b7100000000000000000000000000000000000000000000000000000000600052604160045260246000fd5b61125d826111af565b810181811067ffffffffffffffff8211171561127c5761127b611225565b5b80604052505050565b600061128f6110ca565b905061129b8282611254565b919050565b600067ffffffffffffffff8211156112bb576112ba611225565b5b6112c4826111af565b9050602081019050919050565b82818337600083830152505050565b60006112f36112ee846112a0565b611285565b90508281526020810184848401111561130f5761130e611220565b5b61131a8482856112d1565b509392505050565b600082601f8301126113375761133661121b565b5b81356113478482602086016112e0565b91505092915050565b6000819050919050565b61136381611350565b811461136e57600080fd5b50565b6000813590506113808161135a565b92915050565b600080fd5b600080fd5b60008083601f8401126113a6576113a561121b565b5b8235905067ffffffffffffffff8111156113c3576113c2611386565b5b6020830191508360018202830111156113df576113de61138b565b5b9250929050565b600080600080600060808688031215611402576114016110d4565b5b600086013567ffffffffffffffff8111156114205761141f6110d9565b5b61142c88828901611322565b955050602061143d88828901611127565b945050604061144e88828901611371565b935050606086013567ffffffffffffffff81111561146f5761146e6110d9565b5b61147b88828901611390565b92509250509295509295909350565b6000602082840312156114a05761149f6110d4565b5b600082013567ffffffffffffffff8111156114be576114bd6110d9565b5b6114ca84828501611322565b91505092915050565b6000806000604084860312156114ec576114eb6110d4565b5b600084013567ffffffffffffffff81111561150a576115096110d9565b5b61151686828701611322565b935050602084013567ffffffffffffffff811115611537576115366110d9565b5b61154386828701611390565b92509250509250925092565b600061155a826110de565b9050919050565b61156a8161154f565b811461157557600080fd5b50565b60008135905061158781611561565b92915050565b6000806000604084860312156115a6576115a56110d4565b5b60006115b486828701611578565b935050602084013567ffffffffffffffff8111156115d5576115d46110d9565b5b6115e186828701611390565b92509250509250925092565b6115f68161154f565b82525050565b600060208201905061161160008301846115ed565b92915050565b600080600080600060808688031215611633576116326110d4565b5b600061164188828901611578565b955050602061165288828901611127565b945050604061166388828901611371565b935050606086013567ffffffffffffffff811115611684576116836110d9565b5b61169088828901611390565b92509250509295509295909350565b7f4e487b7100000000000000000000000000000000000000000000000000000000600052602260045260246000fd5b600060028204905060018216806116e657607f821691505b6020821081036116f9576116f861169f565b5b50919050565b7f546869732077616c6c6574206e6565647320746f20626520726567697374657260008201527f6564000000000000000000000000000000000000000000000000000000000000602082015250565b600061175b602283611174565b9150611766826116ff565b604082019050919050565b6000602082019050818103600083015261178a8161174e565b9050919050565b7f416c6961732063616e6e6f7420626520656d7074790000000000000000000000600082015250565b60006117c7601583611174565b91506117d282611791565b602082019050919050565b600060208201905081810360008301526117f6816117ba565b9050919050565b600081905092915050565b600061181382611169565b61181d81856117fd565b935061182d818560208601611185565b80840191505092915050565b60006118458284611808565b915081905092915050565b7f416c69617320616c72656164792074616b656e00000000000000000000000000600082015250565b6000611886601383611174565b915061189182611850565b602082019050919050565b600060208201905081810360008301526118b581611879565b9050919050565b60008190508160005260206000209050919050565b60006020601f8301049050919050565b600082821b905092915050565b60006008830261191e7fffffffffffffffffffffffffffffffffffffffffffffffffffffffffffffffff826118e1565b61192886836118e1565b95508019841693508086168417925050509392505050565b6000819050919050565b600061196561196061195b84611350565b611940565b611350565b9050919050565b6000819050919050565b61197f8361194a565b61199361198b8261196c565b8484546118ee565b825550505050565b600090565b6119a861199b565b6119b3818484611976565b505050565b5b818110156119d7576119cc6000826119a0565b6001810190506119b9565b5050565b601f821115611a1c576119ed816118bc565b6119f6846118d1565b81016020851015611a05578190505b611a19611a11856118d1565b8301826119b8565b50505b505050565b600082821c905092915050565b6000611a3f60001984600802611a21565b1980831691505092915050565b6000611a588383611a2e565b9150826002028217905092915050565b611a7182611169565b67ffffffffffffffff811115611a8a57611a89611225565b5b611a9482546116ce565b611a9f8282856119db565b600060209050601f831160018114611ad25760008415611ac0578287015190505b611aca8582611a4c565b865550611b32565b601f198416611ae0866118bc565b60005b82811015611b0857848901518255600182019150602085019450602081019050611ae3565b86831015611b255784890151611b21601f891682611a2e565b8355505b6001600288020188555050505b505050505050565b7f4e487b7100000000000000000000000000000000000000000000000000000000600052602160045260246000fd5b7f416c69617320646f6573206e6f74206578697374000000000000000000000000600082015250565b6000611b9f601483611174565b9150611baa82611b69565b602082019050919050565b60006020820190508181036000830152611bce81611b92565b9050919050565b7f496e76616c696420616464726573733a20307830000000000000000000000000600082015250565b6000611c0b601483611174565b9150611c1682611bd5565b602082019050919050565b60006020820190508181036000830152611c3a81611bfe565b9050919050565b7f446f6e6174696f6e20616d6f756e74206d75737420626520677265617465722060008201527f7468616e20302045544800000000000000000000000000000000000000000000602082015250565b6000611c9d602a83611174565b9150611ca882611c41565b604082019050919050565b60006020820190508181036000830152611ccc81611c90565b9050919050565b600081905092915050565b50565b6000611cee600083611cd3565b9150611cf982611cde565b600082019050919050565b6000611d0f82611ce1565b9150819050919050565b7f4661696c656420746f2073656e6420457468657220746f207265636569766572600082015250565b6000611d4f602083611174565b9150611d5a82611d19565b602082019050919050565b60006020820190508181036000830152611d7e81611d42565b9050919050565b600082825260208201905092915050565b6000611da182611169565b611dab8185611d85565b9350611dbb818560208601611185565b611dc4816111af565b840191505092915050565b611dd881611350565b82525050565b60028110611def57611dee611b3a565b5b50565b6000819050611e0082611dde565b919050565b6000611e1082611df2565b9050919050565b611e2081611e05565b82525050565b611e2f816110fe565b82525050565b600060a0830160008301518482036000860152611e528282611d96565b9150506020830151611e676020860182611dcf565b506040830151611e7a6040860182611e17565b506060830151611e8d6060860182611e26565b506080830151611ea06080860182611dcf565b508091505092915050565b60006020820190508181036000830152611ec58184611e35565b905092915050565b7f446f6e6174696f6e20616d6f756e74206d75737420626520677265617465722060008201527f7468616e20300000000000000000000000000000000000000000000000000000602082015250565b6000611f29602683611174565b9150611f3482611ecd565b604082019050919050565b60006020820190508181036000830152611f5881611f1c565b9050919050565b611f68816110fe565b82525050565b6000604082019050611f836000830185611f5f565b611f906020830184611f5f565b9392505050565b600081519050611fa68161135a565b92915050565b600060208284031215611fc257611fc16110d4565b5b6000611fd084828501611f97565b91505092915050565b7f496e73756666696369656e7420616c6c6f77616e636500000000000000000000600082015250565b600061200f601683611174565b915061201a82611fd9565b602082019050919050565b6000602082019050818103600083015261203e81612002565b9050919050565b61204e81611350565b82525050565b60006060820190506120696000830186611f5f565b6120766020830185611f5f565b6120836040830184612045565b949350505050565b60008115159050919050565b6120a08161208b565b81146120ab57600080fd5b50565b6000815190506120bd81612097565b92915050565b6000602082840312156120d9576120d86110d4565b5b60006120e7848285016120ae565b91505092915050565b7f4661696c656420746f207472616e7366657220455243323020746f6b656e732060008201527f746f20636f6e7472616374000000000000000000000000000000000000000000602082015250565b600061214c602b83611174565b9150612157826120f0565b604082019050919050565b6000602082019050818103600083015261217b8161213f565b9050919050565b600061219d612198612193846110de565b611940565b6110de565b9050919050565b60006121af82612182565b9050919050565b60006121c1826121a4565b9050919050565b6121d1816121b6565b82525050565b60006040820190506121ec60008301856121c8565b6121f96020830184612045565b9392505050565b7f4661696c656420746f2073656e6420455243323020746f6b656e7320746f207260008201527f6563656976657200000000000000000000000000000000000000000000000000602082015250565b600061225c602783611174565b915061226782612200565b604082019050919050565b6000602082019050818103600083015261228b8161224f565b905091905056fea2646970667358221220dc940b60e9ad2c7f122694356edf9ef52e7d2f5ec1c50d56b6c18b9a308651c264736f6c63430008180033",
  "linkReferences": {},
  "deployedLinkReferences": {}
}